:020000040800F2
:100000000015002089010008C5010008C70100088B
:10001000C9010008CB010008CD0100080000000064
:10002000000000000000000000000000CF010008F8
:10003000D101000800000000D3010008D50100082C
:10004000D7010008D7010008D7010008D701000830
:10005000D7010008D7010008D7010008D701000820
:10006000D7010008D7010008D7010008D701000810
:10007000D7010008D7010008D7010008D701000800
:10008000D7010008D7010008D7010008D7010008F0
:10009000D7010008D7010008D7010008D7010008E0
:1000A000D7010008D7010008D7010008D7010008D0
:1000B000D7010008D7010008D7010008D7010008C0
:1000C000D7010008D7010008D7010008D7010008B0
:1000D000D7010008D7010008D7010008D7010008A0
:1000E000D7010008D7010008D7010008D701000890
:1000F000D7010008D7010008D7010008D701000880
:10010000D7010008D7010008D7010008D70100086F
:10011000D7010008D7010008D7010008D70100085F
:10012000D7010008D7010008D7010008D70100084F
:10013000D7010008D7010008D7010008D70100083F
:10014000D7010008D7010008D7010008D70100082F
:10015000D7010008D7010008D7010008D70100081F
:10016000D7010008D7010008D7010008D70100080F
:10017000D7010008D7010008D701000800000000DF
:10018000D7010008D701000816481749174B9942B4
:100190003CBF50F8042B41F8042BF8D314494FF01E
:1001A00000028B4238BF43F8042BFAD3DFF8440037
:1001B000016841F470010160BFF34F8FBFF36F8F8F
:1001C0000D480047FEE7FEE7FEE7FEE7FEE7FEE735
:1001D000FEE7FEE7FEE7FEE708480949094A0A4B41
:1001E00070470000280400080000002000000020E4
:1001F0000015002088ED00E09502000800000020B6
:100200000015002000050020000500207047704701
:10021000704700001C4A116841EA000111607047F4
:100220004FF000021044026842EA01024FEA410125
:1002300022EA0102026070471448016841F004019B
:10024000016070471248016841F480710160704795
:100250000E48016821F00401016070470C480168F4
:1002600021F48071016070470848016881F0040141
:10027000016070470648016881F480710160704731
:100280000138FDD1704700004C10024014040048B2
:10029000141000480D48C16C41F00201C1640C48C3
:1002A000016881F0300141F01001016000F012F8A6
:1002B00000F08DF8B0F5006F01DA03DBF8E7FFF727
:1002C000BBFFF5E7FFF7C4FFF2E7FEE700100240CF
:1002D00000040048464A116841F4807111601168B9
:1002E00011F4806FFBD0434A116841F001011160A5
:1002F0004FF09042116841F00C0111603E4A1168C4
:1003000041F0020111603B4A116841F40051116053
:100310003A4A116841F4005111604FF00A00013867
:10032000FDD121F400511160354A116821F001011D
:100330001160344A116841F480711160324A1168C9
:1003400041F4800121F4701121F4403141F48031F5
:1003500021F01F0141F006011160294A116821F0C6
:100360000051116041F0805111604FF40C7101395E
:10037000FDD1264A116821F0180121F020011160F9
:10038000234A116821F00F0121F4F86141F4C07192
:100390001160204A116821F0400111601E4A116865
:1003A00021F4E01141F440211160184A116821F450
:1003B000005121F440611160114A116841F00101BE
:1003C0001160164A116811F0010FFBD070470C49FB
:1003D0000A6822F0004222F03F0242F004020A6062
:1003E0000F490A6812F0040FFAD10E4908687047E5
:1003F000001002404C1002402C0000482C1002401B
:100400000800045004000140080304500C0004508C
:1004100030000450B0000450140004500000045098
:080420000003045040000450E9
:040000050800029558
:00000001FF
