:020000040800F2
:100000000015002089010008C5010008C70100088B
:10001000C9010008CB010008CD0100080000000064
:10002000000000000000000000000000CF010008F8
:10003000D101000800000000D3010008D50100082C
:10004000D7010008D7010008D7010008D701000830
:10005000D7010008D7010008D7010008D701000820
:10006000D7010008D7010008D7010008D701000810
:10007000D7010008D7010008D7010008D701000800
:10008000D7010008D7010008D7010008D7010008F0
:10009000D7010008D7010008D7010008D7010008E0
:1000A000D7010008D7010008D7010008D7010008D0
:1000B0001F020008D7010008D7010008D701000877
:1000C000D7010008D7010008D7010008D7010008B0
:1000D000D7010008D7010008D7010008D7010008A0
:1000E000D7010008D7010008D7010008D701000890
:1000F000D7010008D7010008D7010008D701000880
:10010000D7010008D7010008D7010008D70100086F
:10011000D7010008D7010008D7010008D70100085F
:10012000D7010008D7010008D7010008D70100084F
:10013000D7010008D7010008D7010008D70100083F
:10014000D7010008D7010008D7010008D70100082F
:10015000D7010008D7010008D7010008D70100081F
:10016000D7010008D7010008D7010008D70100080F
:10017000D7010008D7010008D701000800000000DF
:10018000D7010008D701000816481749174B9942B4
:100190003CBF50F8042B41F8042BF8D314494FF01E
:1001A00000028B4238BF43F8042BFAD3DFF8440037
:1001B000016841F470010160BFF34F8FBFF36F8F8F
:1001C0000D480047FEE7FEE7FEE7FEE7FEE7FEE735
:1001D000FEE7FEE7FEE7FEE708480949094A0A4B41
:1001E0007047000094050008000000200000002077
:1001F0000015002088ED00E0150200080000002036
:100200000015002000050020000500207047704701
:100210007047000000F046F900F094F9FEE700B5E1
:1002200000F042F85DF804EB034A6FF00101116041
:10023000BFF34F8F7047000010000040904A1168D4
:1002400041EA0001116070474FF00002104402685B
:1002500042EA01024FEA410122EA010202607047CC
:100260008848016841F004010160704786480168D0
:1002700041F48071016070478248016821F00401F7
:10028000016070478048016821F480710160704707
:100290007C48016881F00401016070477A48016878
:1002A00081F480710160704700B5BBF1000F23D16C
:1002B0004FF0000000F028F94FF00A0A734800F0F0
:1002C00023F9734800F020F9724800F01DF97248D4
:1002D00000F01AF9714800F017F9714800F014F9AC
:1002E000BAF1010AEAD14FF0FF3000F00DF90BF13D
:1002F000010B5DF804EB7047BBF1010F23D14FF008
:10030000000000F001F94FF00A0A614800F0FCF823
:10031000604800F0F9F8604800F0F6F85F4800F037
:10032000F3F85F4800F0F0F8584800F0EDF8BAF143
:10033000010AEAD14FF0FF3000F0E6F80BF1010BB3
:100340005DF804EB7047BBF1020F23D14FF00000C2
:1003500000F0DAF84FF00A0A4F4800F0D5F84F489D
:1003600000F0D2F84E4800F0CFF8484800F0CCF842
:10037000484800F0C9F8464800F0C6F8BAF1010A4A
:10038000EAD14FF0FF3000F0BFF80BF1010B5DF840
:1003900004EB7047BBF1020F23D14FF0000000F0D7
:1003A000B3F84FF00A0A3D4800F0AEF83C4800F0C0
:1003B000ABF8364800F0A8F8364800F0A5F8344805
:1003C00000F0A2F8344800F09FF8BAF1010AEAD12F
:1003D0004FF0FF3000F098F80BF1010B5DF804EBE3
:1003E0007047BBF1020F23D14FF0000000F08CF8F2
:1003F0004FF00A0A2A4800F087F8244800F084F8F1
:10040000244800F081F8224800F07EF8224800F0ED
:100410007BF8224800F078F8BAF1010AEAD14FF0EF
:10042000FF3000F071F80BF1010B5DF804EB704741
:100430004FF0000000F068F84FF00A0A134800F08F
:1004400063F8144800F060F8114800F05DF81248B5
:1004500000F05AF8114800F057F8114800F054F82D
:10046000BAF1010AEAD14FF0FF3000F04DF84FF039
:10047000000B5DF804EB70470138FDD170470000B8
:100480004C1002401404004814100048FF0000EA19
:10049000B103FCEA00FF00EA0000FFEAF8FC03EA0F
:1004A000FCA103E800B54FF01000FFF7C7FE234999
:1004B0000A6822F0000242F000020A601F484FF072
:1004C0008061FFF7C1FE1D484FF08041FFF7BCFE81
:1004D0005DF804EB70474FF00801194A70B44FF40F
:1004E00000534FF000544FF400454FF0004610F019
:1004F000800F0CBF16601560136014604FEA400057
:100500000139F4D170BC70474FF020010C4A70B42F
:100510004FF400534FF000544FF400454FF00046A5
:1005200010F0004F0CBF16601560136014604FEAA6
:1005300040000139F4D170BC704700000010004841
:10054000181000480E4A116841F0010111600D4A6F
:1005500040F2CF7111600C4A4FF0F90111604FF079
:100560008042116841F001011160084A116841F0B0
:1005700001011160064A4FF0805111607047000080
:1005800058100240280000402C0000400C000040A1
:0405900000E100E0A6
:0400000508000215D8
:00000001FF
