:020000040800F2
:100000004815002089010008C5010008C701000843
:10001000C9010008CB010008CD0100080000000064
:10002000000000000000000000000000CF010008F8
:10003000D101000800000000D3010008D50100082C
:10004000D7010008D7010008D7010008D701000830
:10005000D7010008D7010008D7010008D701000820
:10006000D7010008D7010008D7010008D701000810
:10007000D7010008D7010008D7010008D701000800
:10008000D7010008D7010008D7010008D7010008F0
:10009000D7010008D7010008D7010008D7010008E0
:1000A000D7010008D7010008D7010008D7010008D0
:1000B000D7010008D7010008D7010008D7010008C0
:1000C000D7010008D7010008D7010008D7010008B0
:1000D000D7010008D7010008D7010008D7010008A0
:1000E000D7010008D7010008D7010008D701000890
:1000F000D7010008D7010008D7010008D701000880
:10010000D7010008D7010008D7010008D70100086F
:10011000D7010008D7010008D7010008D70100085F
:10012000D7010008D7010008D7010008D70100084F
:10013000D7010008D7010008D7010008D70100083F
:10014000D7010008D7010008D7010008D70100082F
:10015000D7010008D7010008D7010008D70100081F
:10016000D7010008D7010008D7010008D70100080F
:10017000D7010008D7010008D701000800000000DF
:10018000D7010008D701000816481749174B9942B4
:100190003CBF50F8042B41F8042BF8D314494FF01E
:1001A00000028B4238BF43F8042BFAD3DFF8440037
:1001B000016841F470010160BFF34F8FBFF36F8F8F
:1001C0000D480047FEE7FEE7FEE7FEE7FEE7FEE735
:1001D000FEE7FEE7FEE7FEE708480949094A0A4B41
:1001E00070470000E40A00080000002048000020DA
:1001F0004815002088ED00E01502000848000020A6
:100200004815002048050020480500207047704729
:100210007047000000F05EF800F09AF94FF05300CC
:1002200000F045FC4FF0010100F0CAF94FF0410029
:1002300000F03DFC4FF0020100F0C2F94FF04E001B
:1002400000F035FC4FF0030100F0BAF94FF0540014
:1002500000F02DFC4FF0040100F0B2F94FF0410026
:1002600000F025FC4FF0050100F0AAF94FF4A813A7
:10027000013BFDD100F06CF94FF0430000F017FC9A
:100280004FF0020100F09CF94FF04C0000F00FFC21
:100290004FF0030100F094F94FF0410000F007FC2B
:1002A0004FF0040100F08CF94FF0520000F0FFFB1A
:1002B0004FF0050100F084F94FF0410000F0F7FB2A
:1002C0004FF0060100F07CF94FF4A813013BFDD17B
:1002D000A2E700007E4A116841F0805111604FF0A2
:1002E00005000138FDD17B4A116841F4807111602D
:1002F000116811F4807FFBD0774A116821F0010169
:100300001160116811F0020FFBD121F0040111609E
:10031000116841F48031116021F48031116011685D
:1003200041F001011160116811F0020FF7D011685E
:1003300021F4407141F4807141F400411160644A3C
:10034000116821F080511160614A116841F4007117
:100350001160624A116841F0010141F0020141F06F
:10036000040141F0080111604FF0904211685C48AF
:1003700021EA00015B4841EA000111605A4A116814
:1003800041F03B411160594A1168594841EA000166
:100390001160584A1168524821EA0001514841EA67
:1003A00000011160544A1168544821EA0001544880
:1003B00041EA00011160534A11684FF0BB1041EA55
:1003C00000011160504A1168504841EA0001116073
:1003D0004F4A1168494821EA0001494841EA0001B1
:1003E00011604C4A11684C4821EA00014B4841EA2F
:1003F000000111604A4A11684A4841EA000111604F
:10040000494A11684FF00B0041EA00011160474A68
:100410001168414821EA0001404841EA00011160A9
:10042000434A1168434821EA0001434841EA000178
:100430001160424A11684FF0BB3041EA000111607F
:100440003F4A11683B4821EA00013B4841EA00016C
:1004500011603C4A116821F0010111603A4A1168AB
:1004600041F4701121F0707121F4403121F07001DC
:1004700041F04001116021F4E05141F4A0511160BC
:10048000324A116811F0200FFBD02E4A116821F07A
:100490001C0141F00C0121F0600141F0400121F00C
:1004A000800121F002011160264A116841F001012A
:1004B0001160264A116811F0010FFBD0116811F08C
:1004C000100FFBD0214A4FF004011160704700006B
:1004D0005810024000700040901002404C10024042
:1004E00000F03FC000A02A802000004824000048FF
:1004F000BB0B00B008000048000400480F0F0CFFC1
:100500000A0A08AA2004004824040048B000BBBB23
:100510000804004800080048C0FF030080AA020049
:100520002008004800B0BBBB240800480808004869
:10053000000C00480000FFFF0000AAAA240C00489D
:10054000080C004800240040042400400824004017
:10055000A44A116811F0040FFBD1A34AA34B4FF03A
:10056000000042F8040B9A42FBDD9E4A4FF0040162
:10057000116070479B4A116811F0040FFBD19A4A31
:100580009A4B6FF0000042F8040B9A42FBDD954A4B
:100590004FF0040111607047924A116811F0040F86
:1005A000FBD1914A03464FF0100153F8040B42F877
:1005B000040B0139F9D18B4A4FF0040111607047E7
:1005C000884A136813F0040FFBD101390FD00139A9
:1005D00000F06080013900F0B180013900F00C8139
:1005E000013900F08B81013900F00A8270477E4AA0
:1005F00011687F4B21EA0301000448BF41F0080164
:10060000400048BF41F48001400048BF41F4000170
:10061000400048BF41F010011160916821EA0301D8
:10062000400048BF41F00801400048BF41F480014C
:10063000400048BF41F40001400048BF41F01001B4
:100640009160116921EA0301400048BF41F00801AF
:10065000400048BF41F48001400048BF41F4000120
:10066000400048BF41F010011161916921EA030186
:10067000400048BF41F00801400048BF41F48001FC
:10068000400048BF41F40001400048BF41F0100164
:10069000916107E2544A116843F2600321EA0301C1
:1006A000000448BF41F02001400048BF41F48051A0
:1006B000400048BF41F40051400048BF41F04001B4
:1006C0001160916821EA0301400048BF41F0200118
:1006D000400048BF41F48051400048BF41F4005100
:1006E000400048BF41F040019160116921EA0301D7
:1006F000400048BF41F02001400048BF41F4805114
:10070000400048BF41F40051400048BF41F0400163
:100710001161916921EA0301400048BF41F02001C5
:10072000400048BF41F48051400048BF41F40051AF
:10073000400048BF41F040019161B3E12A4A11688D
:100740002C4B21EA0301000448BF41F480414000E2
:1007500048BF41F08051400048BF41F00051400087
:1007600048BF41F400411160916821EA0301400053
:1007700048BF41F48041400048BF41F080514000F3
:1007800048BF41F00051400048BF41F40041916032
:10079000116921EA0301400048BF41F48041400053
:1007A00048BF41F08051400048BF41F00051400037
:1007B00048BF41F400411161916921EA0301400001
:1007C00048BF41F48041400048BF41F080514000A3
:1007D00048BF41F00051400048BF41F400419161E1
:1007E00060E1000008240040142400405024004030
:1007F0001800C00000C00030B64A116810F4004F65
:1008000014BF41F0804121F0804110F4805F14BF9B
:1008100041F0004121F000411160516810F4804F17
:1008200014BF41F0010121F0010110F4005F14BF79
:1008300041F0020121F002015160916810F4006F53
:1008400014BF41F0804121F0804110F4807F14BF3B
:1008500041F0004121F000419160D16810F4806FB7
:1008600014BF41F0010121F0010110F4007F14BF19
:1008700041F0020121F00201D160116910F0800FF6
:1008800014BF41F0804121F0804110F0100F14BFDF
:1008900041F0004121F000411161516910F0400F19
:1008A00014BF41F0010121F0010110F0200F14BF2D
:1008B00041F0020121F002015161916910F0080F2D
:1008C00014BF41F0804121F0804110F0010F14BFAE
:1008D00041F0004121F000419161D16910F0040F15
:1008E00014BF41F0010121F0010110F0020F14BF0B
:1008F00041F0020121F00201D161D3E0754A116893
:1009000010F4804F14BF41F0807121F0807110F419
:10091000005F14BF41F0007121F000711160516857
:1009200010F4004F14BF41F0040121F0040110F451
:10093000805F14BF41F0080121F008015160916807
:1009400010F4806F14BF41F0807121F0807110F4B9
:10095000007F14BF41F0007121F000719160D168F7
:1009600010F4006F14BF41F0040121F0040110F4F1
:10097000807F14BF41F0080121F00801D1601169A6
:1009800010F0400F14BF41F0807121F0807110F021
:10099000200F14BF41F0007121F000711161516905
:1009A00010F0100F14BF41F0040121F0040110F009
:1009B000800F14BF41F0080121F0080151619169D5
:1009C00010F0040F14BF41F0807121F0807110F01D
:1009D000020F14BF41F0007121F000719161D169E3
:1009E00010F0080F14BF41F0040121F0040110F0D1
:1009F000010F14BF41F0080121F00801D16151E05D
:100A0000344A1168344B21EA0301000448BF41F025
:100A10008061400048BF41F40071400048BF41F48C
:100A20008071400048BF41F400311160916821EAB3
:100A30000301400048BF41F08061400048BF41F4DD
:100A40000071400048BF41F48071400048BF41F44C
:100A500000319160116921EA0301400048BF41F073
:100A60008061400048BF41F40071400048BF41F43C
:100A70008071400048BF41F400311161916921EA61
:100A80000301400048BF41F08061400048BF41F48D
:100A90000071400048BF41F48071400048BF41F4FC
:100AA000003191610D4A4FF00401116070476128D7
:100AB000A8BF20384128B8BF00200ADB5A28C8BF89
:100AC000002006DCA0F141004FEA40000449014447
:100AD00008887047142400400003020408240040E2
:100AE0000000002000FE1467001D1447009D009CBC
:100AF000003F00FA1400005341980019485A095A5F
:100B0000005F00FC015F01FC00AF1404005BC01833
:100B1000815AC9005800C005005F004200F5006717
:0C0B200000EA00AF00BF004600FF00EF3D
:0400000508000215D8
:00000001FF
