:020000040800F2
:100000000015002089010008C5010008C70100088B
:10001000C9010008CB010008CD0100080000000064
:10002000000000000000000000000000CF010008F8
:10003000D101000800000000D3010008D50100082C
:10004000D7010008D7010008D7010008D701000830
:10005000D7010008D7010008D7010008D701000820
:10006000D7010008D7010008D7010008D701000810
:10007000D7010008D7010008D7010008D701000800
:10008000D7010008D7010008D7010008D7010008F0
:10009000D7010008D7010008D7010008D7010008E0
:1000A000D7010008D7010008D7010008D7010008D0
:1000B000D7010008D7010008D7010008D7010008C0
:1000C000D7010008D7010008D7010008D7010008B0
:1000D000D7010008D7010008D7010008D7010008A0
:1000E000D7010008D7010008D7010008D701000890
:1000F000D7010008D7010008D7010008D701000880
:10010000D7010008D7010008D7010008D70100086F
:10011000D7010008D7010008D7010008D70100085F
:10012000D7010008D7010008D7010008D70100084F
:10013000D7010008D7010008D7010008D70100083F
:10014000D7010008D7010008D7010008D70100082F
:10015000D7010008D7010008D7010008D70100081F
:10016000D7010008D7010008D7010008D70100080F
:10017000D7010008D7010008D701000800000000DF
:10018000D7010008D701000816481749174B9942B4
:100190003CBF50F8042B41F8042BF8D314494FF01E
:1001A00000028B4238BF43F8042BFAD3DFF8440037
:1001B000016841F470010160BFF34F8FBFF36F8F8F
:1001C0000D480047FEE7FEE7FEE7FEE7FEE7FEE735
:1001D000FEE7FEE7FEE7FEE708480949094A0A4B41
:1001E000704700007C030008000000200000002091
:1001F0000015002088ED00E0150200080000002036
:100200000015002000050020000500207047704701
:100210007047000000F062F84FF00F0A4FF0000046
:1002200000F08EF80A4800F08BF80A4800F088F8D1
:10023000094800F085F86FF0A85000F081F8BAF195
:10024000010AEFD14FF0FF3000F07AF8FEE700002E
:10025000FF0000EA00FF00EA0000FFEA1C4A116804
:1002600041EA0001116070474FF00002104402683B
:1002700042EA01024FEA410122EA010202607047AC
:100280001448016841F00401016070471248016898
:1002900041F48071016070470E48016821F004014B
:1002A000016070470C48016821F48071016070475B
:1002B0000848016881F00401016070470648016840
:1002C00081F48071016070470138FDD170470000F2
:1002D0004C100240140400481410004800B54FF0C0
:1002E0001000FFF7BBFF23490A6822F0000242F02A
:1002F00000020A601F484FF08061FFF7B5FF1D48FC
:100300004FF08041FFF7B0FF5DF804EB70474FF00E
:100310000801194A70B44FF400534FF000544FF4E1
:1003200000454FF0004610F0800F0CBF16601560BE
:10033000136014604FEA40000139F4D170BC70477B
:100340004FF020010C4A70B44FF400534FF00054AA
:100350004FF400454FF0004610F0004F0CBF166000
:100360001560136014604FEA40000139F4D170BC8D
:0C03700070470000001000481810004802
:0400000508000215D8
:00000001FF
