:020000040800F2
:100000000815002089010008C5010008C701000883
:10001000C9010008CB010008CD0100080000000064
:10002000000000000000000000000000CF010008F8
:10003000D101000800000000D3010008D50100082C
:10004000D7010008D7010008D7010008D701000830
:10005000D7010008D7010008D7010008D701000820
:10006000D7010008D7010008D7010008D701000810
:10007000D7010008D7010008D7010008D701000800
:10008000D7010008D7010008D7010008D7010008F0
:10009000D7010008D7010008D7010008D7010008E0
:1000A000D7010008D7010008D7010008D7010008D0
:1000B000D7010008D7010008D7010008D7010008C0
:1000C000D7010008D7010008D7010008D7010008B0
:1000D000D7010008D7010008D7010008D7010008A0
:1000E000D7010008D7010008D7010008D701000890
:1000F000D7010008D7010008D7010008D701000880
:10010000D7010008D7010008D7010008D70100086F
:10011000D7010008D7010008D7010008D70100085F
:10012000D7010008D7010008D7010008D70100084F
:10013000D7010008D7010008D7010008D70100083F
:10014000D7010008D7010008D7010008D70100082F
:10015000D7010008D7010008D7010008D70100081F
:10016000D7010008D7010008D7010008D70100080F
:10017000D7010008D7010008D701000800000000DF
:10018000D7010008D701000816481749174B9942B4
:100190003CBF50F8042B41F8042BF8D314494FF01E
:1001A00000028B4238BF43F8042BFAD3DFF8440037
:1001B000016841F470010160BFF34F8FBFF36F8F8F
:1001C0000D480047FEE7FEE7FEE7FEE7FEE7FEE735
:1001D000FEE7FEE7FEE7FEE708480949094A0A4B41
:1001E00070470000C4020008000000200800002042
:1001F0000815002088ED00E0150200080800002026
:1002000008150020080500200805002070477047E9
:1002100070470000294C4FF0000602B400F014F8BB
:10022000052E10D000F026F800F02AF80028F7D0AC
:10023000A4F101052F68B842F2D0207004F1010446
:1002400006F10106ECE7FEE71D48C16C41F0010133
:10025000C1644FF09040016821F4406121F0FF013A
:1002600001604FF09040C16840F6AA0241EA0201E5
:10027000C16070474FF09040017C01F02F00704743
:1002800000B590F0000F08BF002290F0010F08BFEA
:10029000632290F0020F08BF6C2290F0040F08BF99
:1002A000722290F0080F08BF752290F0200F08BF4F
:1002B000642210465DF804EB704700000000002047
:0C02C000001002400000000000000000E0
:0400000508000215D8
:00000001FF
